{
  "_format": "hh-sol-artifact-1",
  "contractName": "NexusTreasury",
  "sourceName": "src/NexusTreasury.sol",
  "abi": [
    {
      "inputs": [],
      "stateMutability": "nonpayable",
      "type": "constructor"
    },
    {
      "inputs": [
        {
          "internalType": "uint256",
          "name": "sent",
          "type": "uint256"
        },
        {
          "internalType": "uint256",
          "name": "minimum",
          "type": "uint256"
        }
      ],
      "name": "DepositTooSmall",
      "type": "error"
    },
    {
      "inputs": [],
      "name": "DepositsPausedError",
      "type": "error"
    },
    {
      "inputs": [
        {
          "internalType": "uint256",
          "name": "requested",
          "type": "uint256"
        },
        {
          "internalType": "uint256",
          "name": "available",
          "type": "uint256"
        }
      ],
      "name": "InsufficientBalance",
      "type": "error"
    },
    {
      "inputs": [
        {
          "internalType": "address",
          "name": "owner",
          "type": "address"
        }
      ],
      "name": "OwnableInvalidOwner",
      "type": "error"
    },
    {
      "inputs": [
        {
          "internalType": "address",
          "name": "account",
          "type": "address"
        }
      ],
      "name": "OwnableUnauthorizedAccount",
      "type": "error"
    },
    {
      "inputs": [],
      "name": "ReentrancyGuardReentrantCall",
      "type": "error"
    },
    {
      "inputs": [],
      "name": "WithdrawFailed",
      "type": "error"
    },
    {
      "inputs": [],
      "name": "ZeroAmount",
      "type": "error"
    },
    {
      "anonymous": false,
      "inputs": [
        {
          "indexed": true,
          "internalType": "address",
          "name": "user",
          "type": "address"
        },
        {
          "indexed": false,
          "internalType": "uint256",
          "name": "amount",
          "type": "uint256"
        },
        {
          "indexed": false,
          "internalType": "uint256",
          "name": "newBalance",
          "type": "uint256"
        },
        {
          "indexed": false,
          "internalType": "uint256",
          "name": "timestamp",
          "type": "uint256"
        }
      ],
      "name": "Deposited",
      "type": "event"
    },
    {
      "anonymous": false,
      "inputs": [
        {
          "indexed": false,
          "internalType": "bool",
          "name": "paused",
          "type": "bool"
        }
      ],
      "name": "DepositsPaused",
      "type": "event"
    },
    {
      "anonymous": false,
      "inputs": [
        {
          "indexed": true,
          "internalType": "address",
          "name": "owner",
          "type": "address"
        },
        {
          "indexed": false,
          "internalType": "uint256",
          "name": "amount",
          "type": "uint256"
        }
      ],
      "name": "EmergencyWithdraw",
      "type": "event"
    },
    {
      "anonymous": false,
      "inputs": [
        {
          "indexed": true,
          "internalType": "address",
          "name": "previousOwner",
          "type": "address"
        },
        {
          "indexed": true,
          "internalType": "address",
          "name": "newOwner",
          "type": "address"
        }
      ],
      "name": "OwnershipTransferred",
      "type": "event"
    },
    {
      "anonymous": false,
      "inputs": [
        {
          "indexed": true,
          "internalType": "address",
          "name": "user",
          "type": "address"
        },
        {
          "indexed": false,
          "internalType": "uint256",
          "name": "amount",
          "type": "uint256"
        },
        {
          "indexed": false,
          "internalType": "uint256",
          "name": "remainingBalance",
          "type": "uint256"
        }
      ],
      "name": "Withdrawn",
      "type": "event"
    },
    {
      "inputs": [],
      "name": "MIN_DEPOSIT",
      "outputs": [
        {
          "internalType": "uint256",
          "name": "",
          "type": "uint256"
        }
      ],
      "stateMutability": "view",
      "type": "function"
    },
    {
      "inputs": [],
      "name": "deposit",
      "outputs": [],
      "stateMutability": "payable",
      "type": "function"
    },
    {
      "inputs": [
        {
          "internalType": "address",
          "name": "",
          "type": "address"
        }
      ],
      "name": "deposits",
      "outputs": [
        {
          "internalType": "uint256",
          "name": "",
          "type": "uint256"
        }
      ],
      "stateMutability": "view",
      "type": "function"
    },
    {
      "inputs": [],
      "name": "depositsPaused",
      "outputs": [
        {
          "internalType": "bool",
          "name": "",
          "type": "bool"
        }
      ],
      "stateMutability": "view",
      "type": "function"
    },
    {
      "inputs": [],
      "name": "emergencyWithdrawAll",
      "outputs": [],
      "stateMutability": "nonpayable",
      "type": "function"
    },
    {
      "inputs": [
        {
          "internalType": "address",
          "name": "user",
          "type": "address"
        }
      ],
      "name": "getBalance",
      "outputs": [
        {
          "internalType": "uint256",
          "name": "balance",
          "type": "uint256"
        }
      ],
      "stateMutability": "view",
      "type": "function"
    },
    {
      "inputs": [],
      "name": "owner",
      "outputs": [
        {
          "internalType": "address",
          "name": "",
          "type": "address"
        }
      ],
      "stateMutability": "view",
      "type": "function"
    },
    {
      "inputs": [],
      "name": "renounceOwnership",
      "outputs": [],
      "stateMutability": "nonpayable",
      "type": "function"
    },
    {
      "inputs": [
        {
          "internalType": "bool",
          "name": "paused",
          "type": "bool"
        }
      ],
      "name": "setDepositsPaused",
      "outputs": [],
      "stateMutability": "nonpayable",
      "type": "function"
    },
    {
      "inputs": [],
      "name": "totalDeposits",
      "outputs": [
        {
          "internalType": "uint256",
          "name": "",
          "type": "uint256"
        }
      ],
      "stateMutability": "view",
      "type": "function"
    },
    {
      "inputs": [
        {
          "internalType": "address",
          "name": "newOwner",
          "type": "address"
        }
      ],
      "name": "transferOwnership",
      "outputs": [],
      "stateMutability": "nonpayable",
      "type": "function"
    },
    {
      "inputs": [
        {
          "internalType": "uint256",
          "name": "amount",
          "type": "uint256"
        }
      ],
      "name": "withdraw",
      "outputs": [],
      "stateMutability": "nonpayable",
      "type": "function"
    },
    {
      "stateMutability": "payable",
      "type": "receive"
    }
  ],
  "bytecode": "0x608060405234801561001057600080fd5b506001600055338061003c57604051631e4fbdf760e01b81526000600482015260240160405180910390fd5b6100458161004b565b5061009d565b600180546001600160a01b038381166001600160a01b0319831681179093556040519116919082907f8be0079c531659141344cd1fd0a4f28419497f9722a3daafe3b4186f6b6457e090600090a35050565b610878806100ac6000396000f3fe6080604052600436106100ab5760003560e01c8063d0e30db011610064578063d0e30db014610232578063dd1917191461023a578063e1e158a51461024f578063f2fde38b1461026a578063f8b2cb4f1461028a578063fc7e286d146102c057600080fd5b80631c481e2d146101625780632e1a7d4d1461018257806360da3e83146101a2578063715018a6146101d15780637d882097146101e65780638da5cb5b1461020a57600080fd5b3661015d57662386f26fc1000034101580156100ca575060045460ff16155b1561015b5733600090815260026020526040812080543492906100ee9084906107ab565b92505081905550346003600082825461010791906107ab565b90915550503360008181526002602090815260409182902054825134815291820152428183015290517f91ede45f04a37a7c170f5c1207df3b6bc748dc1e04ad5e917a241d0f52feada39181900360600190a25b005b600080fd5b34801561016e57600080fd5b5061015b61017d3660046107c4565b6102ed565b34801561018e57600080fd5b5061015b61019d3660046107ed565b61033c565b3480156101ae57600080fd5b506004546101bc9060ff1681565b60405190151581526020015b60405180910390f35b3480156101dd57600080fd5b5061015b6104b6565b3480156101f257600080fd5b506101fc60035481565b6040519081526020016101c8565b34801561021657600080fd5b506001546040516001600160a01b0390911681526020016101c8565b61015b6104ca565b34801561024657600080fd5b5061015b6105c1565b34801561025b57600080fd5b506101fc662386f26fc1000081565b34801561027657600080fd5b5061015b610285366004610806565b6106b1565b34801561029657600080fd5b506101fc6102a5366004610806565b6001600160a01b031660009081526002602052604090205490565b3480156102cc57600080fd5b506101fc6102db366004610806565b60026020526000908152604090205481565b6102f56106ec565b6004805460ff19168215159081179091556040519081527f5ef34f53269a04b5b817e5be24a51ba6b477118b399ec9dd5b2baf5b299563dc9060200160405180910390a150565b610344610719565b8060000361036557604051631f2a200560e01b815260040160405180910390fd5b336000908152600260205260409020548111156103ba57336000908152600260205260409081902054905163cf47918160e01b81526103b1918391600401918252602082015260400190565b60405180910390fd5b33600090815260026020526040812080548392906103d990849061082f565b9250508190555080600360008282546103f2919061082f565b9091555050604051600090339083908381818185875af1925050503d8060008114610439576040519150601f19603f3d011682016040523d82523d6000602084013e61043e565b606091505b505090508061046057604051631d42c86760e21b815260040160405180910390fd5b33600081815260026020908152604091829020548251868152918201527f92ccf450a286a957af52509bc1c9939d1a6a481783e142e41e2499f0bb66ebc6910160405180910390a2506104b36001600055565b50565b6104be6106ec565b6104c86000610743565b565b6104d2610719565b60045460ff16156104f557604051627cfe7f60e31b815260040160405180910390fd5b662386f26fc1000034101561052c5760405163253bf97d60e11b8152346004820152662386f26fc1000060248201526044016103b1565b336000908152600260205260408120805434929061054b9084906107ab565b92505081905550346003600082825461056491906107ab565b90915550503360008181526002602090815260409182902054825134815291820152428183015290517f91ede45f04a37a7c170f5c1207df3b6bc748dc1e04ad5e917a241d0f52feada39181900360600190a26104c86001600055565b6105c96106ec565b6105d1610719565b4760006105e66001546001600160a01b031690565b6001600160a01b03168260405160006040518083038185875af1925050503d8060008114610630576040519150601f19603f3d011682016040523d82523d6000602084013e610635565b606091505b505090508061065757604051631d42c86760e21b815260040160405180910390fd5b6001546001600160a01b03166001600160a01b03167f5fafa99d0643513820be26656b45130b01e1c03062e1266bf36f88cbd3bd96958360405161069d91815260200190565b60405180910390a250506104c86001600055565b6106b96106ec565b6001600160a01b0381166106e357604051631e4fbdf760e01b8152600060048201526024016103b1565b6104b381610743565b6001546001600160a01b031633146104c85760405163118cdaa760e01b81523360048201526024016103b1565b60026000540361073c57604051633ee5aeb560e01b815260040160405180910390fd5b6002600055565b600180546001600160a01b038381166001600160a01b0319831681179093556040519116919082907f8be0079c531659141344cd1fd0a4f28419497f9722a3daafe3b4186f6b6457e090600090a35050565b634e487b7160e01b600052601160045260246000fd5b808201808211156107be576107be610795565b92915050565b6000602082840312156107d657600080fd5b813580151581146107e657600080fd5b9392505050565b6000602082840312156107ff57600080fd5b5035919050565b60006020828403121561081857600080fd5b81356001600160a01b03811681146107e657600080fd5b818103818111156107be576107be61079556fea264697066735822122009f1a3f4a29fd9921649861b924959c87e0d8a9e7888e01541f6963cd65f40ad64736f6c63430008140033",
  "linkReferences": {},
  "deployedLinkReferences": {}
}