{
  "_format": "hh-sol-artifact-1",
  "contractName": "NexusRegistry",
  "sourceName": "src/NexusRegistry.sol",
  "abi": [
    {
      "inputs": [],
      "stateMutability": "nonpayable",
      "type": "constructor"
    },
    {
      "inputs": [],
      "name": "EmptyCategory",
      "type": "error"
    },
    {
      "inputs": [],
      "name": "EmptyEndpoint",
      "type": "error"
    },
    {
      "inputs": [
        {
          "internalType": "uint256",
          "name": "sent",
          "type": "uint256"
        },
        {
          "internalType": "uint256",
          "name": "required",
          "type": "uint256"
        }
      ],
      "name": "InsufficientPayment",
      "type": "error"
    },
    {
      "inputs": [],
      "name": "NotPaymentExecutor",
      "type": "error"
    },
    {
      "inputs": [],
      "name": "NotProvider",
      "type": "error"
    },
    {
      "inputs": [
        {
          "internalType": "address",
          "name": "owner",
          "type": "address"
        }
      ],
      "name": "OwnableInvalidOwner",
      "type": "error"
    },
    {
      "inputs": [
        {
          "internalType": "address",
          "name": "account",
          "type": "address"
        }
      ],
      "name": "OwnableUnauthorizedAccount",
      "type": "error"
    },
    {
      "inputs": [
        {
          "internalType": "uint256",
          "name": "provided",
          "type": "uint256"
        },
        {
          "internalType": "uint256",
          "name": "minimum",
          "type": "uint256"
        }
      ],
      "name": "PriceTooLow",
      "type": "error"
    },
    {
      "inputs": [],
      "name": "ProviderNotActive",
      "type": "error"
    },
    {
      "anonymous": false,
      "inputs": [
        {
          "indexed": true,
          "internalType": "address",
          "name": "previousOwner",
          "type": "address"
        },
        {
          "indexed": true,
          "internalType": "address",
          "name": "newOwner",
          "type": "address"
        }
      ],
      "name": "OwnershipTransferred",
      "type": "event"
    },
    {
      "anonymous": false,
      "inputs": [
        {
          "indexed": true,
          "internalType": "address",
          "name": "newExecutor",
          "type": "address"
        }
      ],
      "name": "PaymentExecutorUpdated",
      "type": "event"
    },
    {
      "anonymous": false,
      "inputs": [
        {
          "indexed": true,
          "internalType": "address",
          "name": "provider",
          "type": "address"
        },
        {
          "indexed": true,
          "internalType": "address",
          "name": "payer",
          "type": "address"
        },
        {
          "indexed": false,
          "internalType": "uint256",
          "name": "amount",
          "type": "uint256"
        },
        {
          "indexed": false,
          "internalType": "uint256",
          "name": "newReputation",
          "type": "uint256"
        }
      ],
      "name": "PaymentRecorded",
      "type": "event"
    },
    {
      "anonymous": false,
      "inputs": [
        {
          "indexed": true,
          "internalType": "address",
          "name": "provider",
          "type": "address"
        },
        {
          "indexed": false,
          "internalType": "string",
          "name": "endpoint",
          "type": "string"
        },
        {
          "indexed": false,
          "internalType": "uint256",
          "name": "priceInWei",
          "type": "uint256"
        },
        {
          "indexed": false,
          "internalType": "string",
          "name": "category",
          "type": "string"
        }
      ],
      "name": "ServiceRegistered",
      "type": "event"
    },
    {
      "anonymous": false,
      "inputs": [
        {
          "indexed": true,
          "internalType": "address",
          "name": "provider",
          "type": "address"
        },
        {
          "indexed": false,
          "internalType": "uint256",
          "name": "newPrice",
          "type": "uint256"
        },
        {
          "indexed": false,
          "internalType": "bool",
          "name": "active",
          "type": "bool"
        }
      ],
      "name": "ServiceUpdated",
      "type": "event"
    },
    {
      "inputs": [],
      "name": "MIN_PRICE",
      "outputs": [
        {
          "internalType": "uint256",
          "name": "",
          "type": "uint256"
        }
      ],
      "stateMutability": "view",
      "type": "function"
    },
    {
      "inputs": [],
      "name": "getActiveProviders",
      "outputs": [
        {
          "internalType": "address[]",
          "name": "activeProviders",
          "type": "address[]"
        }
      ],
      "stateMutability": "view",
      "type": "function"
    },
    {
      "inputs": [],
      "name": "getProviderCount",
      "outputs": [
        {
          "internalType": "uint256",
          "name": "count",
          "type": "uint256"
        }
      ],
      "stateMutability": "view",
      "type": "function"
    },
    {
      "inputs": [
        {
          "internalType": "address",
          "name": "provider",
          "type": "address"
        }
      ],
      "name": "getServiceDetails",
      "outputs": [
        {
          "internalType": "string",
          "name": "endpoint",
          "type": "string"
        },
        {
          "internalType": "uint256",
          "name": "priceInWei",
          "type": "uint256"
        },
        {
          "internalType": "string",
          "name": "category",
          "type": "string"
        },
        {
          "internalType": "uint256",
          "name": "reputation",
          "type": "uint256"
        },
        {
          "internalType": "uint256",
          "name": "totalCalls",
          "type": "uint256"
        },
        {
          "internalType": "bool",
          "name": "active",
          "type": "bool"
        }
      ],
      "stateMutability": "view",
      "type": "function"
    },
    {
      "inputs": [
        {
          "internalType": "string",
          "name": "category",
          "type": "string"
        }
      ],
      "name": "getServicesByCategory",
      "outputs": [
        {
          "internalType": "address[]",
          "name": "providers",
          "type": "address[]"
        },
        {
          "internalType": "uint256[]",
          "name": "prices",
          "type": "uint256[]"
        },
        {
          "internalType": "uint256[]",
          "name": "reputations",
          "type": "uint256[]"
        }
      ],
      "stateMutability": "view",
      "type": "function"
    },
    {
      "inputs": [
        {
          "internalType": "address",
          "name": "",
          "type": "address"
        }
      ],
      "name": "isProvider",
      "outputs": [
        {
          "internalType": "bool",
          "name": "",
          "type": "bool"
        }
      ],
      "stateMutability": "view",
      "type": "function"
    },
    {
      "inputs": [],
      "name": "owner",
      "outputs": [
        {
          "internalType": "address",
          "name": "",
          "type": "address"
        }
      ],
      "stateMutability": "view",
      "type": "function"
    },
    {
      "inputs": [],
      "name": "paymentExecutor",
      "outputs": [
        {
          "internalType": "address",
          "name": "",
          "type": "address"
        }
      ],
      "stateMutability": "view",
      "type": "function"
    },
    {
      "inputs": [
        {
          "internalType": "uint256",
          "name": "",
          "type": "uint256"
        }
      ],
      "name": "providerList",
      "outputs": [
        {
          "internalType": "address",
          "name": "",
          "type": "address"
        }
      ],
      "stateMutability": "view",
      "type": "function"
    },
    {
      "inputs": [
        {
          "internalType": "address",
          "name": "provider",
          "type": "address"
        },
        {
          "internalType": "address",
          "name": "payer",
          "type": "address"
        },
        {
          "internalType": "uint256",
          "name": "amount",
          "type": "uint256"
        }
      ],
      "name": "recordPayment",
      "outputs": [],
      "stateMutability": "nonpayable",
      "type": "function"
    },
    {
      "inputs": [
        {
          "internalType": "string",
          "name": "endpoint",
          "type": "string"
        },
        {
          "internalType": "uint256",
          "name": "priceInWei",
          "type": "uint256"
        },
        {
          "internalType": "string",
          "name": "category",
          "type": "string"
        }
      ],
      "name": "registerService",
      "outputs": [],
      "stateMutability": "nonpayable",
      "type": "function"
    },
    {
      "inputs": [],
      "name": "renounceOwnership",
      "outputs": [],
      "stateMutability": "nonpayable",
      "type": "function"
    },
    {
      "inputs": [
        {
          "internalType": "address",
          "name": "",
          "type": "address"
        }
      ],
      "name": "services",
      "outputs": [
        {
          "internalType": "string",
          "name": "endpoint",
          "type": "string"
        },
        {
          "internalType": "uint256",
          "name": "priceInWei",
          "type": "uint256"
        },
        {
          "internalType": "string",
          "name": "category",
          "type": "string"
        },
        {
          "internalType": "uint256",
          "name": "reputation",
          "type": "uint256"
        },
        {
          "internalType": "uint256",
          "name": "totalEarned",
          "type": "uint256"
        },
        {
          "internalType": "uint256",
          "name": "totalCalls",
          "type": "uint256"
        },
        {
          "internalType": "bool",
          "name": "active",
          "type": "bool"
        },
        {
          "internalType": "uint256",
          "name": "registeredAt",
          "type": "uint256"
        }
      ],
      "stateMutability": "view",
      "type": "function"
    },
    {
      "inputs": [
        {
          "internalType": "address",
          "name": "newExecutor",
          "type": "address"
        }
      ],
      "name": "setPaymentExecutor",
      "outputs": [],
      "stateMutability": "nonpayable",
      "type": "function"
    },
    {
      "inputs": [
        {
          "internalType": "address",
          "name": "newOwner",
          "type": "address"
        }
      ],
      "name": "transferOwnership",
      "outputs": [],
      "stateMutability": "nonpayable",
      "type": "function"
    },
    {
      "inputs": [
        {
          "internalType": "uint256",
          "name": "newPrice",
          "type": "uint256"
        },
        {
          "internalType": "bool",
          "name": "active",
          "type": "bool"
        }
      ],
      "name": "updateService",
      "outputs": [],
      "stateMutability": "nonpayable",
      "type": "function"
    }
  ],
  "bytecode": "0x608060405234801561001057600080fd5b50338061003757604051631e4fbdf760e01b81526000600482015260240160405180910390fd5b61004081610058565b50600480546001600160a01b031916331790556100a8565b600080546001600160a01b038381166001600160a01b0319831681178455604051919092169283917f8be0079c531659141344cd1fd0a4f28419497f9722a3daafe3b4186f6b6457e09190a35050565b611560806100b76000396000f3fe608060405234801561001057600080fd5b50600436106101005760003560e01c8063715018a611610097578063ad9f20a611610066578063ad9f20a61461024f578063bb3ef4d31461025d578063f2fde38b14610270578063fb0e9ec11461028357600080fd5b8063715018a6146101fe5780637fadc524146102065780638da5cb5b1461022b578063aa56a3821461023c57600080fd5b80634e6ebeb8116100d35780634e6ebeb81461017e57806356d6d677146101915780636b074a07146101a45780636d966d01146101d757600080fd5b80631707da2214610105578063390bfd3c1461011a5780633c4f95781461014a57806346ce41751461016c575b600080fd5b610118610113366004610eff565b610298565b005b61012d610128366004610f34565b61037b565b6040516001600160a01b0390911681526020015b60405180910390f35b61015d610158366004610f96565b6103a5565b6040516101419392919061104c565b6002545b604051908152602001610141565b61011861018c3660046110ab565b61064e565b60045461012d906001600160a01b031681565b6101c76101b23660046110e7565b60036020526000908152604090205460ff1681565b6040519015158152602001610141565b6101ea6101e53660046110e7565b61079e565b60405161014198979695949392919061114f565b6101186108f3565b6102196102143660046110e7565b610907565b604051610141969594939291906111ab565b6000546001600160a01b031661012d565b61011861024a3660046111f7565b610a91565b61017066038d7ea4c6800081565b61011861026b3660046110e7565b610c25565b61011861027e3660046110e7565b610c77565b61028b610cb5565b6040516101419190611271565b3360009081526003602052604090205460ff166102c857604051631a40715960e11b815260040160405180910390fd5b33600090815260016020526040902082156103225766038d7ea4c6800083101561031a5760405163b467f94560e01b81526004810184905266038d7ea4c6800060248201526044015b60405180910390fd5b600181018390555b60068101805460ff1916831515908117909155600182015460408051918252602082019290925233917f2ae8c903d3fd94d94aad2660ecb026878555911ad6f0fcbd31c48e1323bf1d2b910160405180910390a2505050565b6002818154811061038b57600080fd5b6000918252602090912001546001600160a01b0316905081565b60608060606000805b60025481101561043b57600060016000600284815481106103d1576103d1611284565b60009182526020808320909101546001600160a01b031683528201929092526040019020600681015490915060ff1680156104155750610415816002018989610e48565b156104285782610424816112b0565b9350505b5080610433816112b0565b9150506103ae565b508067ffffffffffffffff811115610455576104556112c9565b60405190808252806020026020018201604052801561047e578160200160208202803683370190505b5093508067ffffffffffffffff81111561049a5761049a6112c9565b6040519080825280602002602001820160405280156104c3578160200160208202803683370190505b5092508067ffffffffffffffff8111156104df576104df6112c9565b604051908082528060200260200182016040528015610508578160200160208202803683370190505b5091506000805b600254811015610644576000600160006002848154811061053257610532611284565b60009182526020808320909101546001600160a01b031683528201929092526040019020600681015490915060ff1680156105765750610576816002018a8a610e48565b15610631576002828154811061058e5761058e611284565b9060005260206000200160009054906101000a90046001600160a01b03168784815181106105be576105be611284565b60200260200101906001600160a01b031690816001600160a01b03168152505080600101548684815181106105f5576105f5611284565b602002602001018181525050806003015485848151811061061857610618611284565b60209081029190910101528261062d816112b0565b9350505b508061063c816112b0565b91505061050f565b5050509250925092565b6004546001600160a01b0316331480159061067457506000546001600160a01b03163314155b156106925760405163c1e2363f60e01b815260040160405180910390fd5b6001600160a01b038316600090815260016020526040902060060154839060ff166106d057604051638017c96b60e01b815260040160405180910390fd5b6001600160a01b03841660009081526001602081905260408220600381018054919390916106ff9084906112df565b925050819055508281600401600082825461071a91906112df565b92505081905550600181600501600082825461073691906112df565b92505081905550836001600160a01b0316856001600160a01b03167f664657b69961b49e1d1e6bb9053b8e27a8e4f520088ea17212f0a4ec7c459a9585846003015460405161078f929190918252602082015260400190565b60405180910390a35050505050565b6001602052600090815260409020805481906107b9906112f8565b80601f01602080910402602001604051908101604052809291908181526020018280546107e5906112f8565b80156108325780601f1061080757610100808354040283529160200191610832565b820191906000526020600020905b81548152906001019060200180831161081557829003601f168201915b50505050509080600101549080600201805461084d906112f8565b80601f0160208091040260200160405190810160405280929190818152602001828054610879906112f8565b80156108c65780601f1061089b576101008083540402835291602001916108c6565b820191906000526020600020905b8154815290600101906020018083116108a957829003601f168201915b505050506003830154600484015460058501546006860154600790960154949592949193509160ff169088565b6108fb610e82565b6109056000610eaf565b565b60606000606060008060008060016000896001600160a01b03166001600160a01b03168152602001908152602001600020905080600001816001015482600201836003015484600501548560060160009054906101000a900460ff1685805461096f906112f8565b80601f016020809104026020016040519081016040528092919081815260200182805461099b906112f8565b80156109e85780601f106109bd576101008083540402835291602001916109e8565b820191906000526020600020905b8154815290600101906020018083116109cb57829003601f168201915b505050505095508380546109fb906112f8565b80601f0160208091040260200160405190810160405280929190818152602001828054610a27906112f8565b8015610a745780601f10610a4957610100808354040283529160200191610a74565b820191906000526020600020905b815481529060010190602001808311610a5757829003601f168201915b505050505093509650965096509650965096505091939550919395565b6000849003610ab35760405163221418ad60e21b815260040160405180910390fd5b66038d7ea4c68000831015610aeb5760405163b467f94560e01b81526004810184905266038d7ea4c680006024820152604401610311565b6000819003610b0d57604051631828cdd560e11b815260040160405180910390fd5b3360009081526003602052604090205460ff16610b7f576002805460018181019092557f405787fa12a823e0f2b7631cc41b3ba8828b3321ca811111fa75cd3aa3bb5ace0180546001600160a01b031916339081179091556000908152600360205260409020805460ff191690911790555b33600090815260016020526040902080610b9a868883611381565b506001810184905560028101610bb1838583611381565b5060068101805460ff191660011790556007810154600003610bd4574260078201555b336001600160a01b03167f9be580f3b076f2ca046f9abf777cf07b9543ae91c040b22b40b926c2fc01ca4d8787878787604051610c1595949392919061146b565b60405180910390a2505050505050565b610c2d610e82565b600480546001600160a01b0319166001600160a01b0383169081179091556040517f862260d62785395f9d5cf78e0aa9b8145eb93abda0c94c6e5516234cb56618ec90600090a250565b610c7f610e82565b6001600160a01b038116610ca957604051631e4fbdf760e01b815260006004820152602401610311565b610cb281610eaf565b50565b60606000805b600254811015610d2c576001600060028381548110610cdc57610cdc611284565b60009182526020808320909101546001600160a01b0316835282019290925260400190206006015460ff1615610d1a5781610d16816112b0565b9250505b80610d24816112b0565b915050610cbb565b508067ffffffffffffffff811115610d4657610d466112c9565b604051908082528060200260200182016040528015610d6f578160200160208202803683370190505b5091506000805b600254811015610e42576001600060028381548110610d9757610d97611284565b60009182526020808320909101546001600160a01b0316835282019290925260400190206006015460ff1615610e305760028181548110610dda57610dda611284565b9060005260206000200160009054906101000a90046001600160a01b0316848381518110610e0a57610e0a611284565b6001600160a01b039092166020928302919091019091015281610e2c816112b0565b9250505b80610e3a816112b0565b915050610d76565b50505090565b60008282604051610e5a9291906114a4565b604051809103902084604051610e7091906114b4565b60405180910390201490509392505050565b6000546001600160a01b031633146109055760405163118cdaa760e01b8152336004820152602401610311565b600080546001600160a01b038381166001600160a01b0319831681178455604051919092169283917f8be0079c531659141344cd1fd0a4f28419497f9722a3daafe3b4186f6b6457e09190a35050565b60008060408385031215610f1257600080fd5b8235915060208301358015158114610f2957600080fd5b809150509250929050565b600060208284031215610f4657600080fd5b5035919050565b60008083601f840112610f5f57600080fd5b50813567ffffffffffffffff811115610f7757600080fd5b602083019150836020828501011115610f8f57600080fd5b9250929050565b60008060208385031215610fa957600080fd5b823567ffffffffffffffff811115610fc057600080fd5b610fcc85828601610f4d565b90969095509350505050565b600081518084526020808501945080840160005b838110156110115781516001600160a01b031687529582019590820190600101610fec565b509495945050505050565b600081518084526020808501945080840160005b8381101561101157815187529582019590820190600101611030565b60608152600061105f6060830186610fd8565b8281036020840152611071818661101c565b90508281036040840152611085818561101c565b9695505050505050565b80356001600160a01b03811681146110a657600080fd5b919050565b6000806000606084860312156110c057600080fd5b6110c98461108f565b92506110d76020850161108f565b9150604084013590509250925092565b6000602082840312156110f957600080fd5b6111028261108f565b9392505050565b6000815180845260005b8181101561112f57602081850181015186830182015201611113565b506000602082860101526020601f19601f83011685010191505092915050565b60006101008083526111638184018c611109565b9050896020840152828103604084015261117d818a611109565b60608401989098525050608081019490945260a0840192909252151560c083015260e0909101529392505050565b60c0815260006111be60c0830189611109565b87602084015282810360408401526111d68188611109565b606084019690965250506080810192909252151560a0909101529392505050565b60008060008060006060868803121561120f57600080fd5b853567ffffffffffffffff8082111561122757600080fd5b61123389838a01610f4d565b909750955060208801359450604088013591508082111561125357600080fd5b5061126088828901610f4d565b969995985093965092949392505050565b6020815260006111026020830184610fd8565b634e487b7160e01b600052603260045260246000fd5b634e487b7160e01b600052601160045260246000fd5b6000600182016112c2576112c261129a565b5060010190565b634e487b7160e01b600052604160045260246000fd5b808201808211156112f2576112f261129a565b92915050565b600181811c9082168061130c57607f821691505b60208210810361132c57634e487b7160e01b600052602260045260246000fd5b50919050565b601f82111561137c57600081815260208120601f850160051c810160208610156113595750805b601f850160051c820191505b8181101561137857828155600101611365565b5050505b505050565b67ffffffffffffffff831115611399576113996112c9565b6113ad836113a783546112f8565b83611332565b6000601f8411600181146113e157600085156113c95750838201355b600019600387901b1c1916600186901b17835561143b565b600083815260209020601f19861690835b8281101561141257868501358255602094850194600190920191016113f2565b508682101561142f5760001960f88860031b161c19848701351681555b505060018560011b0183555b5050505050565b81835281816020850137506000828201602090810191909152601f909101601f19169091010190565b60608152600061147f606083018789611442565b8560208401528281036040840152611498818587611442565b98975050505050505050565b8183823760009101908152919050565b60008083546114c2816112f8565b600182811680156114da57600181146114ef5761151e565b60ff198416875282151583028701945061151e565b8760005260208060002060005b858110156115155781548a8201529084019082016114fc565b50505082870194505b5092969550505050505056fea2646970667358221220fefc33f2e0e31741e51c9e5650646a6194e564148b84da67b1fd544e658cd42164736f6c63430008140033",
  "linkReferences": {},
  "deployedLinkReferences": {}
}